:100000000C943C000C944E000C944E000C944E004A
:100010000C944E000C944E000C944E000C944E0028
:100020000C944E000C944E000C944E000C944E0018
:100030000C944E000C944E000C944E000C944E0008
:100040000C944E000C944E000C944E000C944E00F8
:100050000C944E000C944E000C944E000C944E00E8
:100060000C944E000C944E00BF00C100C300C500AC
:10007000C700C900CB00CD0011241FBECFEFD8E0D0
:10008000DEBFCDBF21E0A0E0B1E001C01D92A230F3
:10009000B207E1F70E94A3000C9400010C94000049
:1000A000092E000CAA0BBB0B9C01AD0184E0220FB2
:1000B000331F441F551F8A95D1F760E074E284EF27
:1000C00090E00E94D800215031093093C500209360
:1000D000C40088E18093C10086E08093C200E0EC18
:1000E000F0E080818D7F808308959091C00095FF1E
:1000F000FCCF8093C60008958091C00087FFFCCF9D
:100100008091C600089584B18F6384B908958111E8
:1001100002C028980895289A08958AB183788AB9E8
:100120008BB18C678BB9089589B182FB882780F9E0
:10013000089589B18C778093010108958091C6005C
:1001400080930001089580E895E20E9450000E948B
:100150008D000E948300CFEF0E947C0080930001FD
:100160000E947500E09100018E2F90E0FC01F09755
:10017000E830F10598F4EC5CFF4F0C94FA0015B8E8
:100180000DC0289A0BC0299A09C02A9A07C02B9A39
:1001900005C02C9A03C02D9A01C0C5B980910001F9
:1001A00085B98FE39CE90197F1F700C00000D4CF37
:1001B000A1E21A2EAA1BBB1BFD010DC0AA1FBB1F6B
:1001C000EE1FFF1FA217B307E407F50720F0A21BDD
:1001D000B30BE40BF50B661F771F881F991F1A944A
:1001E00069F760957095809590959B01AC01BD0174
:1001F000CF010895EE0FFF1F0590F491E02D0994B3
:04020000F894FFCFA0
:00000001FF
