:100000000C9434000C9446000C9446000C9446006A
:100010000C9446000C9446000C9446000C94460048
:100020000C9446000C9446000C9446000C94460038
:100030000C9446000C9446000C9446000C94460028
:100040000C9446000C9446000C9446000C94460018
:100050000C9446000C9446000C9446000C94460008
:100060000C9446000C94460011241FBECFEFD8E03C
:10007000DEBFCDBF21E0A0E0B1E001C01D92A33002
:10008000B207E1F70E94D2000C941B010C9400000F
:10009000092E000CAA0BBB0B9C01AD0184E0220FC2
:1000A000331F441F551F8A95D1F760E074E284EF37
:1000B00090E00E94F900215031093093C50020934F
:1000C000C40088E18093C10086E08093C200E0EC28
:1000D000F0E080818D7F808308959091C00095FF2E
:1000E000FCCF8093C60008958091C600089584B126
:1000F0008F6384B98AB183788AB98BB18C678BB9E5
:10010000089589B18C7789B98695869580628093A8
:1001100002010895813611F4289A0895823611F467
:10012000299A0895833611F42A9A0895843611F491
:100130002B9A0895853611F42C9A0895863611F479
:100140002D9A0895813411F428980895823411F479
:1001500029980895833411F42A980895843411F469
:100160002B980895853411F42C980895863409F459
:100170002D9808958B3369F028F48F3281F08733FE
:1001800031F008958D3339F08E3339F0089581E3DD
:1001900007C082E305C083E303C084E301C085E3B5
:1001A0000C946D0080E895E20E9448000E94770060
:1001B0008091C600809301010E948A000E94810004
:1001C0008091020180618093020190910001891762
:1001D00031F00E94BA0080910201809300012FEF5C
:1001E00089EF90E0215080409040E1F700C000008E
:1001F000DFCFA1E21A2EAA1BBB1BFD010DC0AA1F57
:10020000BB1FEE1FFF1FA217B307E407F50720F07F
:10021000A21BB30BE40BF50B661F771F881F991FFA
:100220001A9469F760957095809590959B01AC0143
:0A023000BD01CF010895F894FFCF3F
:00000001FF
